:100000000A128A11832D00308A000408840A8207AC
:1000100000344C346F3463346B34653464342034CE
:1000200041346E34743469347034683461347334F8
:10003000653400345034723465347334733420348E
:10004000533457343134203474346F3420347234A0
:1000500075346E3400345334693467346E342D345F
:100060004D34613467346E346934743475346434B7
:10007000653400344D344434313430344334203426
:1000800054344534533454344534523400344434B5
:10009000493452343A34203430340034443449340E
:0A00A00052343A3420343134003475
:100B060083010A128A11582E01300A128A11B82559
:100B16000A128A110030F3000030F2000230F100B0
:100B26005830F0000A128A1128260A128A11080083
:100B3600FA0010307A020318A12DA22DAA2D7A08E8
:100B4600803E0A128A11B8250A128A11B72D7A0830
:100B5600EC3EF9007908FA007A08C03E0A128A11BA
:100B6600B8250A128A11B72D0800F800831203135C
:100B760006127808880086160030F3000030F2006E
:100B86000030F1003230F0000A128A1128260A12CB
:100B96008A118312031386120030F3000030F2002C
:100BA6000030F1003230F0000A128A1128260A12AB
:100BB6008A110800F80083120313061678088800C5
:100BC60086160030F3000030F2000030F1000A30E3
:100BD600F0000A128A1128260A128A1183120313B8
:100BE60086120030F3000030F2000030F1000A30C7
:100BF600F0000A128A1128260A128A110800FA0041
:100C0600152E7A0884000A128A1103200A128A1104
:100C16000A128A11DD250A128A110130F9007908B3
:100C2600FA07152E7A08031D192E272E7A08840036
:100C36000A128A1103200A128A110038031D242E73
:100C4600252E042E272E272E080073087204710401
:100C56007004031D2F2E302E322E572E572E0130A4
:100C6600F4000030F5000030F6000030F70074089C
:100C7600F0027508031C750F412E422EF10276080C
:100C8600031C760F472E482EF2027708031C770FB7
:100C96004D2E4E2EF3027308720471047004031D68
:100CA600552E562E322E572E08000030831203136F
:100CB600A3000030A2001330A1008830A00003304A
:100CC60083160313860088010730850087100711F5
:100CD6008312031306138613871007110630831633
:100CE60003139F00FF309200831203139210121019
:100CF600121501300A128A11B8250A128A11023019
:100D06000A128A11B8250A128A1106300A128A11A5
:100D1600B8250A128A110C300A128A11B8250A124D
:100D26008A1138300A128A11B8250A128A119B2EA6
:100D36008312031387100711971117119D111D11A7
:100D46000A128A1187250A128A1132300A128A116A
:100D560002260A128A1110300A128A119B250A12DB
:100D66008A1112300A128A1102260A128A11BB2E21
:100D7600831203130618C02EC12EBB2E971117110E
:100D86009D151D159B010A128A1187250A128A11C3
:100D960023300A128A1102260A128A1110300A1208
:100DA6008A119B250A128A113F300A128A110226DD
:100DB6000A128A1183120313071106178613F12EDE
:100DC6000030F3000030F2000730F100D030F000C0
:100DD6000A128A1128260A128A11F12E0130FB0006
:100DE6007B08831203139B071B08FF3A031DFC2E87
:100DF600FD2EE32E0D2F0D2F0030F3000030F200F4
:100E06000730F100D030F0000A128A1128260A12A3
:100E16008A110D2F0130831203139B02031D142F19
:100E2600152FFF2E0613861310300A128A119B25E2
:100E36000A128A1146300A128A1102260A128A11E9
:100E460083120313071506138617372F0030F30096
:100E56000030F2000730F100D030F0000A128A119B
:100E660028260A128A11372F0130FB007B088312CD
:100E760003139B071B08FF3A031D422F432F292FFD
:100E8600532F532F0030F3000030F2000730F100EB
:100E9600D030F0000A128A1128260A128A11532F1E
:100EA6000130831203139B02031D5A2F5B2F452F1C
:100EB6000613861397151715803095009D111D1181
:100EC60087140A128A1187250A128A1101300A121A
:100ED6008A1102260A128A1110300A128A119B25DB
:100EE6000A128A113F300A128A1102260A128A1140
:100EF60083120313061786138E2F0030F30000307B
:100F0600F2000F30F100A030F0000A128A112826F4
:100F16000A128A118E2F0130831203139502031DC4
:100F2600952F962F802FA62FA62F0030F300003086
:100F3600F2000F30F100A030F0000A128A112826C4
:100F46000A128A11A62F0130FB007B0883120313B5
:100F560095071508803A031DB12FB22F982F061357
:100F6600861310300A128A119B250A128A114630FE
:100F76000A128A1102260A128A1183120313061311
:100F86008617D32F0030F3000030F2000F30F10047
:100F9600A030F0000A128A1128260A128A11D32FCD
:100FA6000130FB007B088312031395071508FF3AEF
:100FB600031DDE2FDF2FC52FEF2FEF2F0030F3009D
:100FC6000030F2000F30F100A030F0000A128A1152
:100FD60028260A128A11EF2F013083120313950275
:100FE6001508803A031DF82FF92FE12F06138613F3
:0A0FF6009B2E9B2E0A128A11002880
:02400E00323F3F
:00000001FF
